:100000000C9463000C948B000C948B000C948B006C
:100010000C948B000C948B000C948B000C948B0034
:100020000C948B000C948B000C948B000C948B0024
:100030000C948B000C948B000C948B000C948B0014
:100040000C9426050C948B000C949C060C948B004D
:100050000C948B000C948B000C948B000C948B00F4
:100060000C948B000C948B000000000024002700EF
:100070002A0000000000250028002B0000000000DE
:1000800023002600290004040404040404040202DA
:100090000202020203030303030301020408102007
:1000A0004080010204081020010204081020000012
:1000B0000007000201000003040600000000000029
:1000C00000006304E50711241FBECFEFD8E0DEBFB8
:1000D000CDBF11E0A0E0B1E0EAE0F9E102C0059097
:1000E0000D92A836B107D9F712E0A8E6B1E001C039
:1000F0001D92AF33B107E1F710E0C6ECD0E004C0C9
:100100002297FE010E947F0CC23CD107C9F70E94D2
:100110001F050C94830C0C940000FC017183608318
:100120004283089526E636E646EE5FE30E94970B8B
:1001300020E030E040E052E40E94E4090895FC0130
:1001400087858F3349F08F3561F08F3179F46EE513
:1001500070E080E090E00EC06CEB70E080E090E03A
:1001600009C067E771E080E090E004C06EEE72E0E5
:1001700080E090E00E946E050895CF93DF93EC013C
:10018000039667E00E9481029A85891719F021E0A1
:1001900030E00CC08B81883239F0803129F0823216
:1001A00019F022E030E002C020E030E0C901DF9128
:1001B000CF910895CF93DF93EC01888199810E94BC
:1001C0008B03BE016D5F7F4F888199810E946A0316
:1001D0008881998164EB40E00E9435038881998190
:1001E0000E949802882311F0188A02C081E0888B4F
:1001F000DF91CF9108950F931F93CF93DF93EC017D
:10020000062F653008F004E0888199810E948B03F5
:10021000BE016D5F7F4F888199810E946A0388814A
:1002200099816EEB40E00E94350310E01230C1F07E
:10023000133028F4112341F0113019F50BC013309D
:10024000A9F01430F1F418C0888199810E94DE026F
:100250008B8717C0888199810E94DE028C8711C02C
:10026000888199810E94DE028D870BC088819981E7
:100270000E94DE028E8705C0888199810E94DE027D
:100280008F871F5F011790F6DF91CF911F910F911C
:100290000895CF93DF93EC010E94BD00892B09F0F4
:1002A00071C08989882369F0888199810E948B03B4
:1002B0008881998164E448890E943503CE010E94B7
:1002C0009F00CE0162E00E94FB009C8580E02B85B0
:1002D00030E0282B392B8B81823231F0883221F0AB
:1002E000803109F04EC03DC08F858F3329F18034B5
:1002F00020F48F3109F045C02FC08F3579F08F374A
:1003000009F03FC0B901882777FD8095982F0E949A
:10031000E70A20E030E040E85DE32EC03595279500
:10032000B901882777FD8095982F0E94E70A20E081
:1003300030E040E05EE320C0359527953595279560
:10034000B901882777FD8095982F0E94E70A20E061
:1003500030E040E85EE310C083E0359527958A954C
:10036000E1F7B901882777FD8095982F0E94E70A69
:1003700020E030E040E05FE30E94970B9B01AC017E
:1003800005C008C020E030E040E050E0622F832F3D
:10039000942F752F262F382F492F572FB901CA01B7
:1003A000DF91CF910895EF92FF921F93CF93DF9348
:1003B000EC01888199810E946F0253E0E52EF12CB7
:1003C000EC0EFD1E10E001C01F5F8A81811768F0EE
:1003D00088819981B7010E94C503882331F0CE013D
:1003E0000E94BD00892B89F7EFCFCE010E94DA0071
:1003F000CE0164E00E94FB00DF91CF911F91FF903E
:10040000EF900895DC0180ED1D968C931D9780E997
:100410001E968C931E978FE11F968C931F9781E0F9
:1004200050968C935097FD0180E090E02FEF23834E
:100430000196319688309105D1F7CD010E94D30104
:100440000895FC0181E0818BCF010E940202089592
:100450000E942B020895DC011A966C931A97462F7E
:1004600050E0CA018A579F4FFC0124911B962C93A0
:100470001B9746565F4FFA0184911C968C931C97EC
:1004800030E0220F331FF901EE58FF4F8591949110
:100490001E969C938E931D97F901E458FF4F85910A
:1004A000949150969C938E931F97F901E859FF4FB2
:1004B0008591949152969C938E9351978FEF1896B5
:1004C0008C93189719961C92199787E0FD01E80FF5
:1004D000F11D1082882311F08150F8CF0895DC01BE
:1004E0008FEF18968C93189719961C92199787E09E
:1004F000FD01E80FF11D1082882311F08150F8CF23
:100500000895FC0140E030E05CE80EC0208190E0FE
:10051000822F8327369580FD35279F5F983011F015
:100520002695F6CF4F5F3196461780F3832F0895B7
:10053000FF920F931F938C01DC015196ED91FC917A
:10054000529780811C969C911C97892B80831D96C5
:10055000ED91FC911E9790811C968C91809589233A
:10056000808381E090E00E949805D8015196ED913A
:10057000FC91529790811C968C9180958923808361
:1005800085E090E00E949805D8011F96ED91FC91BE
:1005900050972081FF2430E01C968C9190E0282316
:1005A0003923232B11F0FF24F39482E390E00E947F
:1005B00098058F2D1F910F91FF900895EF92FF9254
:1005C0000F931F93CF93DF937C0101E010E0C0E015
:1005D000D0E0C7010E9498028111102B000F2196D4
:1005E000C830D105B1F7812FDF91CF911F910F91C5
:1005F000FF90EF900895EF92FF920F931F937C016D
:10060000062FDC015196ED91FC91529780811C964A
:100610009C911C97892B80831D96ED91FC911E97D0
:1006200090811C968C91809589238083017010E0C5
:10063000F801E45AFE4F808190E00E949805D701AE
:100640001D96ED91FC911E9780811C969C91892BA3
:100650008083065A1E4FF801808190E00E94980521
:100660001F910F91FF90EF900895CF92DF92EF923C
:10067000FF920F931F93CF93DF938C01E42EFF24FF
:10068000F394C0E0D0E0C62EDD2460E08F2D90E032
:100690008C219D21892B09F061E0C8010E94FB0299
:1006A000FF0C2196C830D10581F7EE2051F4F801F6
:1006B000828560E00E94E005F801828560E00E948A
:1006C0000006DF91CF911F910F91FF90EF90DF9087
:1006D000CF900895EF92FF920F931F93CF93DF93E4
:1006E0008C017B0165E540E00E943503C0E0D0E06D
:1006F000F701EC0FFD1FC801608140E00E94350347
:100700002196C830D105A1F7DF91CF911F910F91AC
:10071000FF90EF9008951F93CF93DF93EC018A85AC
:1007200060E00E94E0051DE7115010F410E028C0C1
:1007300082E090E00E9498058A850E944D06892BF0
:1007400099F38A8560E00E9400068A8561E00E9434
:10075000E00584EF91E00E9498058A8560E00E94A0
:10076000E00581E490E00E9498058A850E944D068C
:1007700010E0892B09F411E08AEE91E00E949805BF
:10078000812FDF91CF911F9108958F929F92AF9209
:10079000BF92DF92EF92FF920F931F93CF93DF935D
:1007A000EC015B018985882309F080C0CE010E949D
:1007B0008B03882309F47AC0CE0160EF40E00E94E9
:1007C0003503DD24DA94EE24E39400E010E021E028
:1007D000822E912CCE010E949802F82ECE010E940A
:1007E0009802282F502F569556955695C801877018
:1007F0009070B40102C0660F771F8A95E2F7462F0A
:10080000FF2029F0222309F051C09F2D21C022236F
:1008100039F58885992787FD90950817190711F4F0
:10082000D8860EC0081719076CF4262F30E0FE0199
:10083000E50FF11D808190E028233923232B19F047
:1008400091E003C0088790E0EE24D02E992341F078
:10085000FE01E50FF11D8081842B8083F92E07C0F6
:10086000FE01E50FF11D4095808148234083CE01B4
:100870006F2D0E94FB020F5F1F4F0034110509F01E
:10088000A9CFEE2011F081E0898720E030E0F5016A
:10089000E20FF31FDE01A20FB31F8C9180832F5F45
:1008A0003F4F2830310599F781E001C080E0DF91AA
:1008B000CF911F910F91FF90EF90DF90BF90AF907D
:1008C0009F908F9008950F931F9308E611E0C80141
:1008D00062E00E9428028BE791E0B80140E00E94AC
:1008E0008D008DE891E0B80141E00E948D001F91DC
:1008F0000F9108951F93CF93DF93EC0110E04B818C
:1009000050E060E070E08CE292E020E130E00E9494
:1009100043091F5F2196183091F7DF91CF911F9106
:100920000895EF92FF920F931F93CF93DF93EC0103
:100930008CE292E060E071E00E9456084A8150E04B
:1009400060E070E08CE292E02AE030E00E9443092F
:100950008CE292E068E071E00E945608CE010E94AD
:100960007A048CE292E06AE071E00E945608CE01BF
:100970000E94BD008130910519F0029781F405C0F5
:100980008CE292E06DE071E004C08CE292E069E1FB
:1009900071E00E947508CE010E94020221C0CE01C2
:1009A0000E9449017B018C018CE292E0B801A70111
:1009B0000E94DF098CE292E06CE271E00E9456082E
:1009C000C801B7010E949200AB01BC018CE292E029
:1009D0000E94DF098CE292E06FE271E00E9456080B
:1009E000DF91CF911F910F91FF90EF9008958BE7CA
:1009F00091E00E9491048DE891E00E9491048CE2C4
:100A000092E00E945E0808950F931F930CE212E09B
:100A1000C80140E855E260E070E00E94D9068BE72B
:100A200091E00E9421028DE891E00E942102C8011C
:100A300062E371E00E9475081F910F9108950E9472
:100A4000A6050E9404050E94F704FDCF1F920F9295
:100A50000FB60F9211242F933F938F939F93AF93D1
:100A6000BF938091A3019091A401A091A501B091A1
:100A7000A6013091A7010196A11DB11D232F2D5F65
:100A80002D3720F02D570196A11DB11D2093A701F0
:100A90008093A3019093A401A093A501B093A60114
:100AA00080919F019091A001A091A101B091A2011C
:100AB0000196A11DB11D80939F019093A001A09369
:100AC000A101B093A201BF91AF919F918F913F91EE
:100AD0002F910F900FBE0F901F901895EF92FF92DD
:100AE0000F931F937B018C018FB7F8944091A30162
:100AF0005091A4016091A5017091A6018FBF2FB7FD
:100B0000F8948091A3019091A401A091A501B091C6
:100B1000A6012FBF841B950BA60BB70BE816F90691
:100B20000A071B0760F71F910F91FF90EF90089540
:100B3000019759F0FC01EE0FFF1FEE0FFF1F3297D8
:100B40008FB7F8943197F1F78FBF0895789484B5F3
:100B5000826084BD84B5816084BD85B5826085BDB9
:100B600085B5816085BDEEE6F0E08081816080839F
:100B7000E1E8F0E080818260808380818160808311
:100B8000E0E8F0E0808181608083E1EBF0E080814B
:100B900084608083E0EBF0E0808181608083EAE71D
:100BA000F0E08081846080838081826080838081A6
:100BB000816080838081806880831092C100089565
:100BC000282F30E0C90186569F4FFC0194912A5787
:100BD0003F4FF9018491882391F0E82FF0E0EE0F68
:100BE000FF1FE859FF4FA591B491662329F48C911A
:100BF000909589238C9308958C91892B8C930895DB
:100C0000482F50E0CA0182559F4FFC012491CA0130
:100C100086569F4FFC0194914A575F4FFA013491D9
:100C20003323D1F1222331F1233021F4809180004C
:100C30008F7705C0243031F4809180008F7D8093C0
:100C4000800018C0213019F484B58F7704C0223099
:100C500021F484B58F7D84BD0DC0263021F48091B0
:100C6000B0008F7705C0273029F48091B0008F7DC8
:100C70008093B000E32FF0E0EE0FFF1FEE58FF4F20
:100C8000A591B491662329F48C91909589238C9336
:100C900008958C91892B8C930895682F70E0CB0177
:100CA00082559F4FFC012491CB0186569F4FFC013A
:100CB00044916A577F4FFB019491992319F420E0E6
:100CC00030E038C0222331F1233021F480918000BC
:100CD0008F7705C0243031F4809180008F7D809320
:100CE000800018C0213019F484B58F7704C02230F9
:100CF00021F484B58F7D84BD0DC0263021F4809110
:100D0000B0008F7705C0273029F48091B0008F7D27
:100D10008093B000892F90E0880F991F84589F4FCF
:100D2000FC01A591B4918C9120E030E0842311F076
:100D300021E030E0C90108951F920F920FB60F9283
:100D400011242F933F934F935F936F937F938F93D0
:100D50009F93AF93BF93EF93FF934091C600E091B1
:100D60002802F0912902CF01019660E870E00E940C
:100D7000190C9C0180912A0290912B0228173907A7
:100D800039F0E855FE4F4083309329022093280222
:100D9000FF91EF91BF91AF919F918F917F916F9153
:100DA0005F914F913F912F910F900FBE0F901F9029
:100DB00018955F926F927F928F929F92AF92BF929F
:100DC000CF92DF92EF92FF920F931F93CF93DF9317
:100DD000EC013A014B01413482E458078FE0680787
:100DE00080E078070CF07FC060E874E88EE190E066
:100DF000A40193010E944E0C2150304040405040CD
:100E0000CA01B90122E030E040E050E00E944E0CFF
:100E100059016A01A601950120953095409550959C
:100E200094E0220F331F441F551F9A95D1F760E0BD
:100E300074E284EF90E00E944E0CCA01B9012FEFDA
:100E400030E040E050E00E94FA0BA40193010E94C0
:100E50004E0CC90181509F4F181619061CF4522ED2
:100E60005A9403C055245394521A60E079E08DE3FC
:100E700090E0A40193010E944E0C2150304040406C
:100E80005040CA01B90122E030E040E050E00E9449
:100E90004E0C209530954095509583E0220F331FDE
:100EA000441F551F8A95D1F760E074E284EF90E00B
:100EB0000E944E0CCA01B9012FEF30E040E050E033
:100EC0000E94FA0BA40193010E944E0CC9018150AB
:100ED0009F4F181619061CF4822F815002C081E022
:100EE000821B851500F5E885F98581E090E00A8888
:100EF00002C0880F991F0A94E2F7808360E079E0CE
:100F00008DE390E0A40193010E944E0C21503040EB
:100F100040405040CA01B90122E030E040E050E0DA
:100F20000E944E0C04C0E885F98510829501EC8181
:100F3000FD813083EE81FF812083EA85FB8520815E
:100F400041E050E0CA010E8402C0880F991F0A9444
:100F5000E2F7282B2083EA85FB852081CA010F84D4
:100F600002C0880F991F0A94E2F7282B2083EA8594
:100F7000FB858081088802C0440F551F0A94E2F760
:100F8000842B8083DF91CF911F910F91FF90EF9081
:100F9000DF90CF90BF90AF909F908F907F906F9099
:100FA0005F900895FC01A085B18521898C9190E026
:100FB000022E02C0959587950A94E2F780FFF6CF3E
:100FC0000484F585E02D6083089582E691E0909396
:100FD0002D0280932C0288EA91E090932F02809357
:100FE0002E0285EC90E0909331028093300284ECE5
:100FF00090E0909333028093320280EC90E09093E3
:1010000035028093340281EC90E090933702809314
:10101000360286EC90E0909339028093380284E0A7
:1010200080933A0283E080933B0287E080933C0206
:1010300085E080933D0281E080933E0208950F9306
:101040001F93CF93DF938C01EB0109C02196D80148
:10105000ED91FC910190F081E02DC8010995688126
:101060006623A1F7DF91CF911F910F910895EF9221
:10107000FF920F931F93CF93DF938C017B01EA01C3
:101080000CC0D7016D917D01D801ED91FC910190CB
:10109000F081E02DC80109952197209791F7DF9104
:1010A000CF911F910F91FF90EF900895DC01ED918A
:1010B000FC910280F381E02D099508950F931F9311
:1010C0008C01DC01ED91FC910190F081E02D6DE04F
:1010D0000995D801ED91FC910190F081E02DC801B6
:1010E0006AE009951F910F9108950F931F938C014A
:1010F0000E945608C8010E945E081F910F91089532
:101100002F923F924F925F926F927F928F929F9217
:10111000AF92BF92CF92DF92EF92FF920F931F9305
:10112000DF93CF93CDB7DEB7A0970FB6F894DEBFAD
:101130000FBECDBF1C016A017B0141155105610540
:10114000710549F4DC01ED91FC910190F081E02DF5
:1011500060E3099554C0882499245401422E5524F3
:101160006624772401E010E00C0F1D1F080D191DE7
:10117000C701B601A30192010E942C0CF801608303
:101180000894811C911CA11CB11CC701B601A301CC
:1011900092010E942C0CC901DA016C017D01C1147D
:1011A000D104E104F104F1F681E0E82EF12CEC0E1B
:1011B000FD1EE80CF91C3E010894611C711CD50150
:1011C000C4010197A109B1096C01C818D90814C05C
:1011D000F601EE0DFF1D60816A3010F4605D01C004
:1011E000695CD101ED91FC910190F081E02DC1018C
:1011F00009950894E108F1086E147F0449F7A09658
:101200000FB6F894DEBF0FBECDBFCF91DF911F9117
:101210000F91FF90EF90DF90CF90BF90AF909F9095
:101220008F907F906F905F904F903F902F90089598
:101230002AE00E9480080895EF92FF920F931F9377
:10124000CF93DF93EC017A018B0177FF0FC0E88128
:10125000F9810190F081E02D6DE2099510950095DE
:10126000F094E094E11CF11C011D111DCE01B801A8
:10127000A7012AE00E948008DF91CF911F910F9172
:10128000FF90EF900895DC012115310541F4ED91B7
:10129000FC910190F081E02D642F099508952A308A
:1012A000310519F40E941C0908950E9480080895D0
:1012B0009F92AF92BF92CF92DF92EF92FF920F93E5
:1012C0001F93CF93DF93EC017A018B01922ECB0118
:1012D000BA0120E030E040E050E00E94480A882354
:1012E00064F4E881F9810190F081E02DCE016DE296
:1012F000099517FB109517F9109520E030E040E0B4
:101300005FE3AA240BC0CA01B90120E030E040E24B
:1013100051E40E944C0A9B01AC01A394A91498F3D8
:10132000C801B7010E94E4095B016C010E94B90A7F
:101330007B018C01CE01B801A7010E9418099920F8
:1013400029F0CE0168E571E00E945608C801B70196
:101350000E94E50A9B01AC01C601B5010E94E309A8
:1013600020C020E030E040E251E40E94970B7B0176
:101370008C010E94B40A5B016C01CC24B7FCC094C0
:10138000DC2CCE01B601A5010E941C09C601B501E5
:101390000E94E70A9B01AC01C801B7010E94E30962
:1013A0009A949920F1F6DF91CF911F910F91FF90C0
:1013B000EF90DF90CF90BF90AF909F90089522E084
:1013C0000E94580908955058BB27AA270ED075C10E
:1013D00066D130F06BD120F031F49F3F11F41EF450
:1013E0005BC10EF4E095E7FB51C1E92F77D180F3A3
:1013F000BA17620773078407950718F071F49EF512
:101400008FC10EF4E0950B2EBA2FA02D0B01B90160
:1014100090010C01CA01A0011124FF27591B99F06A
:10142000593F50F4503E68F11A16F040A22F232F76
:10143000342F4427585FF3CF469537952795A795C6
:10144000F0405395C9F77EF41F16BA0B620B730B6D
:10145000840BBAF09150A1F0FF0FBB1F661F771FDE
:10146000881FC2F70EC0BA0F621F731F841F48F493
:10147000879577956795B795F7959E3F08F0B3CF19
:101480009395880F08F09927EE0F97958795089503
:10149000D9D008F481E008950CD00FC107D140F0F5
:1014A000FED030F021F45F3F19F0F0C0511139C186
:1014B000F3C014D198F39923C9F35523B1F3951BC5
:1014C000550BBB27AA2762177307840738F09F5F65
:1014D0005F4F220F331F441FAA1FA9F333D00E2ED4
:1014E0003AF0E0E830D091505040E695001CCAF741
:1014F00029D0FE2F27D0660F771F881FBB1F261706
:1015000037074807AB07B0E809F0BB0B802DBF01D8
:10151000FF2793585F4F2AF09E3F510568F0B6C0F1
:1015200000C15F3FECF3983EDCF3869577956795B5
:10153000B795F7959F5FC9F7880F911D9695879589
:1015400097F90895E1E0660F771F881FBB1F6217A8
:1015500073078407BA0720F0621B730B840BBA0B66
:10156000EE1F88F7E095089504D06894B111D9C0B2
:101570000895BCD088F09F5790F0B92F9927B751A4
:10158000A0F0D1F0660F771F881F991F1AF0BA9547
:10159000C9F712C0B13081F0C3D0B1E00895C0C026
:1015A000672F782F8827B85F39F0B93FCCF386953D
:1015B00077956795B395D9F73EF49095809570959A
:1015C00061957F4F8F4F9F4F0895E89409C097FB17
:1015D0003EF490958095709561957F4F8F4F9F4F0A
:1015E0009923A9F0F92F96E9BB279395F69587954E
:1015F00077956795B795F111F8CFFAF4BB0F11F411
:1016000060FF1BC06F5F7F4F8F4F9F4F16C08823B7
:1016100011F096E911C0772321F09EE8872F762FED
:1016200005C0662371F096E8862F70E060E02AF02E
:101630009A95660F771F881FDAF7880F969587951A
:1016400097F90895990F0008550FAA0BE0E8FEEFEF
:1016500016161706E807F907C0F012161306E40776
:10166000F50798F0621B730B840B950B39F40A266F
:1016700061F0232B242B252B21F408950A2609F44D
:10168000A140A6958FEF811D811D089597F99F6751
:1016900080E870E060E008959FEF80EC08950024FA
:1016A0000A941616170618060906089500240A94C7
:1016B00012161306140605060895092E0394000C4D
:1016C00011F4882352F0BB0F40F4BF2B11F460FFDC
:1016D00004C06F5F7F4F8F4F9F4F089557FD905805
:1016E000440F551F59F05F3F71F04795880F97FBE6
:1016F000991F61F09F3F79F08795089512161306A0
:101700001406551FF2CF4695F1DF08C016161706CE
:101710001806991FF1CF8695710561050894089503
:10172000E894BB2766277727CB0197F908950BD05C
:10173000C4CFB5DF28F0BADF18F0952309F0A6CFA3
:10174000ABCF1124EECFCADFA0F3959FD1F3950F55
:1017500050E0551F629FF001729FBB27F00DB11D35
:10176000639FAA27F00DB11DAA1F649F6627B00DC5
:10177000A11D661F829F2227B00DA11D621F739FAE
:10178000B00DA11D621F839FA00D611D221F749FBC
:101790003327A00D611D231F849F600D211D822F03
:1017A000762F6A2F11249F5750408AF0E1F088234A
:1017B0004AF0EE0FFF1FBB1F661F771F881F915057
:1017C0005040A9F79E3F510570F060CFAACF5F3F10
:1017D000ECF3983EDCF3869577956795B795F7958A
:1017E000E7959F5FC1F7FE2B880F911D9695879512
:1017F00097F90895629FD001739FF001829FE00DD9
:10180000F11D649FE00DF11D929FF00D839FF00D7F
:10181000749FF00D659FF00D9927729FB00DE11D2B
:10182000F91F639FB00DE11DF91FBD01CF01112408
:10183000089597FB092E07260AD077FD04D049D0DA
:1018400006D000201AF4709561957F4F0895F6F741
:10185000909581959F4F0895A1E21A2EAA1BBB1B5C
:10186000FD010DC0AA1FBB1FEE1FFF1FA217B3076C
:10187000E407F50720F0A21BB30BE40BF50B661F82
:10188000771F881F991F1A9469F760957095809546
:1018900090959B01AC01BD01CF01089597FB092EE6
:1018A00005260ED057FD04D0D7DF0AD0001C38F42F
:1018B00050954095309521953F4F4F4F5F4F08957C
:1018C000F6F790958095709561957F4F8F4F9F4F5C
:1018D0000895AA1BBB1B51E107C0AA1FBB1FA61777
:1018E000B70710F0A61BB70B881F991F5A95A9F7C9
:1018F00080959095BC01CD010895EE0FFF1F0590D6
:0A190000F491E02D0994F894FFCF54
:10190A0073656E736F72200020003A2000496E766C
:10191A00616C696420435243004E6F7420612076E3
:10192A00616C6964206465766963650043090046F1
:10193A00090044616C6C61732054656D7065726155
:10194A007475726520494320436F6E74726F6C2000
:10195A004C696272617279002E0005373705000002
:08196A000000D2071F08370836
:00000001FF
